{
  "_format": "hh-sol-artifact-1",
  "contractName": "Challenge",
  "sourceName": "contracts/Challenge.sol",
  "abi": [
    {
      "inputs": [],
      "stateMutability": "nonpayable",
      "type": "constructor"
    },
    {
      "inputs": [
        {
          "internalType": "bytes32",
          "name": "",
          "type": "bytes32"
        }
      ],
      "name": "challenges",
      "outputs": [
        {
          "internalType": "address payable",
          "name": "person",
          "type": "address"
        },
        {
          "internalType": "enum Challenge.Status",
          "name": "status",
          "type": "uint8"
        },
        {
          "internalType": "uint256",
          "name": "funds",
          "type": "uint256"
        }
      ],
      "stateMutability": "view",
      "type": "function"
    },
    {
      "inputs": [],
      "name": "ping",
      "outputs": [
        {
          "internalType": "string",
          "name": "",
          "type": "string"
        }
      ],
      "stateMutability": "pure",
      "type": "function"
    }
  ],
  "bytecode": "0x608060405234801561001057600080fd5b50600180546001600160a01b0319163317905561019e806100326000396000f3fe608060405234801561001057600080fd5b50600436106100365760003560e01c80635c36b1861461003b578063c1e69b661461006f575b600080fd5b60408051808201825260098152686368616c6c656e676560b81b6020820152905161006691906100bb565b60405180910390f35b6100ac61007d366004610110565b600060208190529081526040902080546001909101546001600160a01b03821691600160a01b900460ff169083565b60405161006693929190610129565b600060208083528351808285015260005b818110156100e8578581018301518582016040015282016100cc565b818111156100fa576000604083870101525b50601f01601f1916929092016040019392505050565b60006020828403121561012257600080fd5b5035919050565b6001600160a01b0384168152606081016003841061015757634e487b7160e01b600052602160045260246000fd5b60208201939093526040015291905056fea2646970667358221220a022cc1b17151b2c7973cf8032b9780d8c917a09c3238a2d8db81aaa0591c69164736f6c63430008090033",
  "linkReferences": {},
  "deployedLinkReferences": {}
}