{
  "_format": "hh-sol-artifact-1",
  "contractName": "Challenge",
  "sourceName": "contracts/Challenge.sol",
  "abi": [
    {
      "inputs": [
        {
          "internalType": "string",
          "name": "_name",
          "type": "string"
        }
      ],
      "stateMutability": "nonpayable",
      "type": "constructor"
    },
    {
      "inputs": [
        {
          "internalType": "bytes32",
          "name": "",
          "type": "bytes32"
        }
      ],
      "name": "challenges",
      "outputs": [
        {
          "internalType": "address payable",
          "name": "person",
          "type": "address"
        },
        {
          "internalType": "enum Challenge.Status",
          "name": "status",
          "type": "uint8"
        },
        {
          "internalType": "uint256",
          "name": "funds",
          "type": "uint256"
        }
      ],
      "stateMutability": "view",
      "type": "function"
    },
    {
      "inputs": [],
      "name": "getName",
      "outputs": [
        {
          "internalType": "string",
          "name": "",
          "type": "string"
        }
      ],
      "stateMutability": "view",
      "type": "function"
    },
    {
      "inputs": [],
      "name": "ping",
      "outputs": [
        {
          "internalType": "string",
          "name": "",
          "type": "string"
        }
      ],
      "stateMutability": "pure",
      "type": "function"
    }
  ],
  "bytecode": "0x608060405234801561001057600080fd5b5060405161072a38038061072a83398101604081905261002f916101f1565b6100786040518060400160405280601681526020017f636f6e73747275637465642077697468206e616d653a00000000000000000000815250826100a460201b6102211760201c565b600080546001600160a01b03191633179055805161009d906001906020840190610112565b5050610332565b6100ed82826040516024016100ba9291906102c9565b60408051601f198184030181529190526020810180516001600160e01b03908116634b5c427760e01b179091526100f116565b5050565b80516a636f6e736f6c652e6c6f67602083016000808483855afa5050505050565b82805461011e906102f7565b90600052602060002090601f0160209004810192826101405760008555610186565b82601f1061015957805160ff1916838001178555610186565b82800160010185558215610186579182015b8281111561018657825182559160200191906001019061016b565b50610192929150610196565b5090565b5b808211156101925760008155600101610197565b634e487b7160e01b600052604160045260246000fd5b60005b838110156101dc5781810151838201526020016101c4565b838111156101eb576000848401525b50505050565b60006020828403121561020357600080fd5b81516001600160401b038082111561021a57600080fd5b818401915084601f83011261022e57600080fd5b815181811115610240576102406101ab565b604051601f8201601f19908116603f01168101908382118183101715610268576102686101ab565b8160405282815287602084870101111561028157600080fd5b6102928360208301602088016101c1565b979650505050505050565b600081518084526102b58160208601602086016101c1565b601f01601f19169290920160200192915050565b6040815260006102dc604083018561029d565b82810360208401526102ee818561029d565b95945050505050565b600181811c9082168061030b57607f821691505b6020821081141561032c57634e487b7160e01b600052602260045260246000fd5b50919050565b6103e9806103416000396000f3fe608060405234801561001057600080fd5b50600436106100415760003560e01c806317d7de7c146100465780635c36b18614610064578063c1e69b6614610089575b600080fd5b61004e6100d5565b60405161005b91906102d8565b60405180910390f35b6040805180820190915260098152686368616c6c656e676560b81b602082015261004e565b6100c66100973660046102f2565b600260205260009081526040902080546001909101546001600160a01b03821691600160a01b900460ff169083565b60405161005b9392919061030b565b60606101916040518060400160405280600e81526020016d31b432b1b5b4b733903730b6b29d60911b8152506001805461010e9061034a565b80601f016020809104026020016040519081016040528092919081815260200182805461013a9061034a565b80156101875780601f1061015c57610100808354040283529160200191610187565b820191906000526020600020905b81548152906001019060200180831161016a57829003601f168201915b5050505050610221565b6001805461019e9061034a565b80601f01602080910402602001604051908101604052809291908181526020018280546101ca9061034a565b80156102175780601f106101ec57610100808354040283529160200191610217565b820191906000526020600020905b8154815290600101906020018083116101fa57829003601f168201915b5050505050905090565b6102668282604051602401610237929190610385565b60408051601f198184030181529190526020810180516001600160e01b0316634b5c427760e01b17905261026a565b5050565b80516a636f6e736f6c652e6c6f67602083016000808483855afa5050505050565b6000815180845260005b818110156102b157602081850181015186830182015201610295565b818111156102c3576000602083870101525b50601f01601f19169290920160200192915050565b6020815260006102eb602083018461028b565b9392505050565b60006020828403121561030457600080fd5b5035919050565b6001600160a01b0384168152606081016003841061033957634e487b7160e01b600052602160045260246000fd5b602082019390935260400152919050565b600181811c9082168061035e57607f821691505b6020821081141561037f57634e487b7160e01b600052602260045260246000fd5b50919050565b604081526000610398604083018561028b565b82810360208401526103aa818561028b565b9594505050505056fea2646970667358221220880ec66612653a6ee3f6b357929ddd341dd14085ada1cdbd5eb0c5b6e2700f5c64736f6c63430008090033",
  "linkReferences": {},
  "deployedLinkReferences": {}
}