{
  "_format": "hh-sol-artifact-1",
  "contractName": "Challenge",
  "sourceName": "contracts/Challenge.sol",
  "abi": [
    {
      "inputs": [
        {
          "internalType": "string",
          "name": "_name",
          "type": "string"
        }
      ],
      "stateMutability": "nonpayable",
      "type": "constructor"
    },
    {
      "inputs": [
        {
          "internalType": "bytes32",
          "name": "",
          "type": "bytes32"
        }
      ],
      "name": "challenges",
      "outputs": [
        {
          "internalType": "address payable",
          "name": "person",
          "type": "address"
        },
        {
          "internalType": "enum Challenge.Status",
          "name": "status",
          "type": "uint8"
        },
        {
          "internalType": "uint256",
          "name": "funds",
          "type": "uint256"
        }
      ],
      "stateMutability": "view",
      "type": "function"
    },
    {
      "inputs": [],
      "name": "getName",
      "outputs": [
        {
          "internalType": "string",
          "name": "",
          "type": "string"
        }
      ],
      "stateMutability": "view",
      "type": "function"
    },
    {
      "inputs": [],
      "name": "getResult",
      "outputs": [
        {
          "internalType": "uint256",
          "name": "",
          "type": "uint256"
        }
      ],
      "stateMutability": "pure",
      "type": "function"
    },
    {
      "inputs": [],
      "name": "ping",
      "outputs": [
        {
          "internalType": "string",
          "name": "",
          "type": "string"
        }
      ],
      "stateMutability": "pure",
      "type": "function"
    }
  ],
  "bytecode": "0x608060405234801561001057600080fd5b5060405161078a38038061078a83398101604081905261002f916101f1565b6100786040518060400160405280601681526020017f636f6e73747275637465642077697468206e616d653a00000000000000000000815250826100a460201b61025b1760201c565b600080546001600160a01b03191633179055805161009d906001906020840190610112565b5050610332565b6100ed82826040516024016100ba9291906102c9565b60408051601f198184030181529190526020810180516001600160e01b03908116634b5c427760e01b179091526100f116565b5050565b80516a636f6e736f6c652e6c6f67602083016000808483855afa5050505050565b82805461011e906102f7565b90600052602060002090601f0160209004810192826101405760008555610186565b82601f1061015957805160ff1916838001178555610186565b82800160010185558215610186579182015b8281111561018657825182559160200191906001019061016b565b50610192929150610196565b5090565b5b808211156101925760008155600101610197565b634e487b7160e01b600052604160045260246000fd5b60005b838110156101dc5781810151838201526020016101c4565b838111156101eb576000848401525b50505050565b60006020828403121561020357600080fd5b81516001600160401b038082111561021a57600080fd5b818401915084601f83011261022e57600080fd5b815181811115610240576102406101ab565b604051601f8201601f19908116603f01168101908382118183101715610268576102686101ab565b8160405282815287602084870101111561028157600080fd5b6102928360208301602088016101c1565b979650505050505050565b600081518084526102b58160208601602086016101c1565b601f01601f19169290920160200192915050565b6040815260006102dc604083018561029d565b82810360208401526102ee818561029d565b95945050505050565b600181811c9082168061030b57607f821691505b6020821081141561032c57634e487b7160e01b600052602260045260246000fd5b50919050565b610449806103416000396000f3fe608060405234801561001057600080fd5b506004361061004c5760003560e01c806317d7de7c146100515780635c36b1861461006f578063c1e69b6614610094578063de292789146100e0575b600080fd5b6100596100f6565b6040516100669190610312565b60405180910390f35b6040805180820190915260098152686368616c6c656e676560b81b6020820152610059565b6100d16100a236600461032c565b600260205260009081526040902080546001909101546001600160a01b03821691600160a01b900460ff169083565b60405161006693929190610345565b6100e8610242565b604051908152602001610066565b60606101b26040518060400160405280600e81526020016d31b432b1b5b4b733903730b6b29d60911b8152506001805461012f90610384565b80601f016020809104026020016040519081016040528092919081815260200182805461015b90610384565b80156101a85780601f1061017d576101008083540402835291602001916101a8565b820191906000526020600020905b81548152906001019060200180831161018b57829003601f168201915b505050505061025b565b600180546101bf90610384565b80601f01602080910402602001604051908101604052809291908181526020018280546101eb90610384565b80156102385780601f1061020d57610100808354040283529160200191610238565b820191906000526020600020905b81548152906001019060200180831161021b57829003601f168201915b5050505050905090565b6000600160028261025382846103bf565b949350505050565b6102a082826040516024016102719291906103e5565b60408051601f198184030181529190526020810180516001600160e01b0316634b5c427760e01b1790526102a4565b5050565b80516a636f6e736f6c652e6c6f67602083016000808483855afa5050505050565b6000815180845260005b818110156102eb576020818501810151868301820152016102cf565b818111156102fd576000602083870101525b50601f01601f19169290920160200192915050565b60208152600061032560208301846102c5565b9392505050565b60006020828403121561033e57600080fd5b5035919050565b6001600160a01b0384168152606081016003841061037357634e487b7160e01b600052602160045260246000fd5b602082019390935260400152919050565b600181811c9082168061039857607f821691505b602082108114156103b957634e487b7160e01b600052602260045260246000fd5b50919050565b600082198211156103e057634e487b7160e01b600052601160045260246000fd5b500190565b6040815260006103f860408301856102c5565b828103602084015261040a81856102c5565b9594505050505056fea2646970667358221220784df81dda16723563e364450356b2db46f3ebeb13bc2d91b5386f216e405e2364736f6c63430008090033",
  "linkReferences": {},
  "deployedLinkReferences": {}
}