{
  "_format": "hh-sol-artifact-1",
  "contractName": "Challenge",
  "sourceName": "contracts/Challenge.sol",
  "abi": [
    {
      "inputs": [
        {
          "internalType": "string",
          "name": "_name",
          "type": "string"
        }
      ],
      "stateMutability": "nonpayable",
      "type": "constructor"
    },
    {
      "inputs": [
        {
          "internalType": "bytes32",
          "name": "",
          "type": "bytes32"
        }
      ],
      "name": "challenges",
      "outputs": [
        {
          "internalType": "address payable",
          "name": "person",
          "type": "address"
        },
        {
          "internalType": "enum Challenge.Status",
          "name": "status",
          "type": "uint8"
        },
        {
          "internalType": "uint256",
          "name": "funds",
          "type": "uint256"
        }
      ],
      "stateMutability": "view",
      "type": "function"
    },
    {
      "inputs": [],
      "name": "getName",
      "outputs": [
        {
          "internalType": "string",
          "name": "",
          "type": "string"
        }
      ],
      "stateMutability": "view",
      "type": "function"
    },
    {
      "inputs": [],
      "name": "ping",
      "outputs": [
        {
          "internalType": "string",
          "name": "",
          "type": "string"
        }
      ],
      "stateMutability": "pure",
      "type": "function"
    }
  ],
  "bytecode": "0x608060405234801561001057600080fd5b506040516104a83803806104a883398101604081905261002f9161010a565b600080546001600160a01b03191633179055805161005490600190602084019061005b565b5050610214565b828054610067906101d9565b90600052602060002090601f01602090048101928261008957600085556100cf565b82601f106100a257805160ff19168380011785556100cf565b828001600101855582156100cf579182015b828111156100cf5782518255916020019190600101906100b4565b506100db9291506100df565b5090565b5b808211156100db57600081556001016100e0565b634e487b7160e01b600052604160045260246000fd5b6000602080838503121561011d57600080fd5b82516001600160401b038082111561013457600080fd5b818501915085601f83011261014857600080fd5b81518181111561015a5761015a6100f4565b604051601f8201601f19908116603f01168101908382118183101715610182576101826100f4565b81604052828152888684870101111561019a57600080fd5b600093505b828410156101bc578484018601518185018701529285019261019f565b828411156101cd5760008684830101525b98975050505050505050565b600181811c908216806101ed57607f821691505b6020821081141561020e57634e487b7160e01b600052602260045260246000fd5b50919050565b610285806102236000396000f3fe608060405234801561001057600080fd5b50600436106100415760003560e01c806317d7de7c146100465780635c36b18614610064578063c1e69b6614610089575b600080fd5b61004e6100d5565b60405161005b9190610167565b60405180910390f35b6040805180820190915260098152686368616c6c656e676560b81b602082015261004e565b6100c66100973660046101bc565b600260205260009081526040902080546001909101546001600160a01b03821691600160a01b900460ff169083565b60405161005b939291906101d5565b6060600180546100e490610214565b80601f016020809104026020016040519081016040528092919081815260200182805461011090610214565b801561015d5780601f106101325761010080835404028352916020019161015d565b820191906000526020600020905b81548152906001019060200180831161014057829003601f168201915b5050505050905090565b600060208083528351808285015260005b8181101561019457858101830151858201604001528201610178565b818111156101a6576000604083870101525b50601f01601f1916929092016040019392505050565b6000602082840312156101ce57600080fd5b5035919050565b6001600160a01b0384168152606081016003841061020357634e487b7160e01b600052602160045260246000fd5b602082019390935260400152919050565b600181811c9082168061022857607f821691505b6020821081141561024957634e487b7160e01b600052602260045260246000fd5b5091905056fea264697066735822122058c347442ecd48bdfc34733ea9a6c4d5a4a4534de133e3b3d592f5fc85a9ff6f64736f6c63430008090033",
  "linkReferences": {},
  "deployedLinkReferences": {}
}