{
  "_format": "hh-sol-artifact-1",
  "contractName": "Challenge",
  "sourceName": "contracts/Challenge.sol",
  "abi": [
    {
      "inputs": [
        {
          "internalType": "string",
          "name": "_name",
          "type": "string"
        }
      ],
      "stateMutability": "nonpayable",
      "type": "constructor"
    },
    {
      "inputs": [
        {
          "internalType": "bytes32",
          "name": "",
          "type": "bytes32"
        }
      ],
      "name": "challenges",
      "outputs": [
        {
          "internalType": "address payable",
          "name": "person",
          "type": "address"
        },
        {
          "internalType": "enum Challenge.Status",
          "name": "status",
          "type": "uint8"
        },
        {
          "internalType": "uint256",
          "name": "funds",
          "type": "uint256"
        }
      ],
      "stateMutability": "view",
      "type": "function"
    },
    {
      "inputs": [],
      "name": "ping",
      "outputs": [
        {
          "internalType": "string",
          "name": "",
          "type": "string"
        }
      ],
      "stateMutability": "pure",
      "type": "function"
    }
  ],
  "bytecode": "0x608060405234801561001057600080fd5b506040516103c13803806103c183398101604081905261002f9161010a565b600080546001600160a01b03191633179055805161005490600190602084019061005b565b5050610214565b828054610067906101d9565b90600052602060002090601f01602090048101928261008957600085556100cf565b82601f106100a257805160ff19168380011785556100cf565b828001600101855582156100cf579182015b828111156100cf5782518255916020019190600101906100b4565b506100db9291506100df565b5090565b5b808211156100db57600081556001016100e0565b634e487b7160e01b600052604160045260246000fd5b6000602080838503121561011d57600080fd5b82516001600160401b038082111561013457600080fd5b818501915085601f83011261014857600080fd5b81518181111561015a5761015a6100f4565b604051601f8201601f19908116603f01168101908382118183101715610182576101826100f4565b81604052828152888684870101111561019a57600080fd5b600093505b828410156101bc578484018601518185018701529285019261019f565b828411156101cd5760008684830101525b98975050505050505050565b600181811c908216806101ed57607f821691505b6020821081141561020e57634e487b7160e01b600052602260045260246000fd5b50919050565b61019e806102236000396000f3fe608060405234801561001057600080fd5b50600436106100365760003560e01c80635c36b1861461003b578063c1e69b661461006f575b600080fd5b60408051808201825260098152686368616c6c656e676560b81b6020820152905161006691906100bb565b60405180910390f35b6100ac61007d366004610110565b600260205260009081526040902080546001909101546001600160a01b03821691600160a01b900460ff169083565b60405161006693929190610129565b600060208083528351808285015260005b818110156100e8578581018301518582016040015282016100cc565b818111156100fa576000604083870101525b50601f01601f1916929092016040019392505050565b60006020828403121561012257600080fd5b5035919050565b6001600160a01b0384168152606081016003841061015757634e487b7160e01b600052602160045260246000fd5b60208201939093526040015291905056fea2646970667358221220c293160751b96ccced72e7b483ca6ee4ff48642e84bb2169734b0879fcb1f55964736f6c63430008090033",
  "linkReferences": {},
  "deployedLinkReferences": {}
}