{
  "_format": "hh-sol-artifact-1",
  "contractName": "VowDAO",
  "sourceName": "contracts/VowDAO.sol",
  "abi": [
    {
      "inputs": [],
      "stateMutability": "nonpayable",
      "type": "constructor"
    },
    {
      "inputs": [],
      "name": "acceptChallenge",
      "outputs": [],
      "stateMutability": "payable",
      "type": "function"
    },
    {
      "inputs": [
        {
          "internalType": "address",
          "name": "challengeAddress",
          "type": "address"
        }
      ],
      "name": "addChallenge",
      "outputs": [],
      "stateMutability": "nonpayable",
      "type": "function"
    },
    {
      "inputs": [
        {
          "internalType": "address",
          "name": "",
          "type": "address"
        }
      ],
      "name": "challenges",
      "outputs": [
        {
          "internalType": "bool",
          "name": "",
          "type": "bool"
        }
      ],
      "stateMutability": "view",
      "type": "function"
    },
    {
      "inputs": [
        {
          "internalType": "address",
          "name": "challengeAddress",
          "type": "address"
        }
      ],
      "name": "getChallenge",
      "outputs": [
        {
          "internalType": "bool",
          "name": "",
          "type": "bool"
        }
      ],
      "stateMutability": "view",
      "type": "function"
    },
    {
      "inputs": [
        {
          "internalType": "address",
          "name": "_contract",
          "type": "address"
        }
      ],
      "name": "getName",
      "outputs": [
        {
          "internalType": "string",
          "name": "",
          "type": "string"
        }
      ],
      "stateMutability": "view",
      "type": "function"
    },
    {
      "inputs": [],
      "name": "owner",
      "outputs": [
        {
          "internalType": "address payable",
          "name": "",
          "type": "address"
        }
      ],
      "stateMutability": "view",
      "type": "function"
    },
    {
      "inputs": [],
      "name": "ping",
      "outputs": [
        {
          "internalType": "string",
          "name": "",
          "type": "string"
        }
      ],
      "stateMutability": "pure",
      "type": "function"
    }
  ],
  "bytecode": "0x608060405234801561001057600080fd5b50600080546001600160a01b0319163317905561042b806100326000396000f3fe6080604052600436106100705760003560e01c80638da5cb5b1161004e5780638da5cb5b1461010f578063b166bf6b14610147578063f37381ad14610151578063f8242c321461018a57600080fd5b806308b43a19146100755780635c36b186146100ba5780635fd4b08a146100ef575b600080fd5b34801561008157600080fd5b506100a561009036600461029f565b60016020526000908152604090205460ff1681565b60405190151581526020015b60405180910390f35b3480156100c657600080fd5b5060408051808201909152600381526264616f60e81b60208201525b6040516100b191906102ff565b3480156100fb57600080fd5b506100e261010a36600461029f565b6101cc565b34801561011b57600080fd5b5060005461012f906001600160a01b031681565b6040516001600160a01b0390911681526020016100b1565b61014f610249565b005b34801561015d57600080fd5b506100a561016c36600461029f565b6001600160a01b031660009081526001602052604090205460ff1690565b34801561019657600080fd5b5061014f6101a536600461029f565b6001600160a01b03166000908152600160208190526040909120805460ff19169091179055565b6060816001600160a01b03166317d7de7c6040518163ffffffff1660e01b815260040160006040518083038186803b15801561020757600080fd5b505afa15801561021b573d6000803e3d6000fd5b505050506040513d6000823e601f3d908101601f191682016040526102439190810190610348565b92915050565b670de0b6b3a764000034101561029d5760405162461bcd60e51b81526020600482015260156024820152744465706f7369742066756e647320746f20706c617960581b604482015260640160405180910390fd5b565b6000602082840312156102b157600080fd5b81356001600160a01b03811681146102c857600080fd5b9392505050565b60005b838110156102ea5781810151838201526020016102d2565b838111156102f9576000848401525b50505050565b602081526000825180602084015261031e8160408501602087016102cf565b601f01601f19169190910160400192915050565b634e487b7160e01b600052604160045260246000fd5b60006020828403121561035a57600080fd5b815167ffffffffffffffff8082111561037257600080fd5b818401915084601f83011261038657600080fd5b81518181111561039857610398610332565b604051601f8201601f19908116603f011681019083821181831017156103c0576103c0610332565b816040528281528760208487010111156103d957600080fd5b6103ea8360208301602088016102cf565b97965050505050505056fea2646970667358221220e791f04d937e895c3f50539b1513947ab3731c1e1be480b2c4ac37e11da974d164736f6c63430008090033",
  "linkReferences": {},
  "deployedLinkReferences": {}
}