{
  "_format": "hh-sol-artifact-1",
  "contractName": "VowDAO",
  "sourceName": "contracts/VowDAO.sol",
  "abi": [
    {
      "inputs": [],
      "stateMutability": "nonpayable",
      "type": "constructor"
    },
    {
      "inputs": [],
      "name": "acceptChallenge",
      "outputs": [],
      "stateMutability": "payable",
      "type": "function"
    },
    {
      "inputs": [
        {
          "internalType": "address",
          "name": "_challengeContract",
          "type": "address"
        }
      ],
      "name": "addChallenge",
      "outputs": [],
      "stateMutability": "nonpayable",
      "type": "function"
    },
    {
      "inputs": [
        {
          "internalType": "address",
          "name": "",
          "type": "address"
        }
      ],
      "name": "challenges",
      "outputs": [
        {
          "internalType": "bool",
          "name": "",
          "type": "bool"
        }
      ],
      "stateMutability": "view",
      "type": "function"
    },
    {
      "inputs": [
        {
          "internalType": "address",
          "name": "challengeAddress",
          "type": "address"
        }
      ],
      "name": "getChallenge",
      "outputs": [
        {
          "internalType": "bool",
          "name": "",
          "type": "bool"
        }
      ],
      "stateMutability": "view",
      "type": "function"
    },
    {
      "inputs": [
        {
          "internalType": "address",
          "name": "_contract",
          "type": "address"
        }
      ],
      "name": "getName",
      "outputs": [
        {
          "internalType": "string",
          "name": "",
          "type": "string"
        }
      ],
      "stateMutability": "view",
      "type": "function"
    },
    {
      "inputs": [],
      "name": "owner",
      "outputs": [
        {
          "internalType": "address payable",
          "name": "",
          "type": "address"
        }
      ],
      "stateMutability": "view",
      "type": "function"
    },
    {
      "inputs": [],
      "name": "ping",
      "outputs": [
        {
          "internalType": "string",
          "name": "",
          "type": "string"
        }
      ],
      "stateMutability": "pure",
      "type": "function"
    }
  ],
  "bytecode": "0x6080604052600060025534801561001557600080fd5b50600080546001600160a01b03191633179055610554806100376000396000f3fe6080604052600436106100705760003560e01c80638da5cb5b1161004e5780638da5cb5b1461010f578063b166bf6b14610147578063f37381ad14610151578063f8242c321461018a57600080fd5b806308b43a19146100755780635c36b186146100ba5780635fd4b08a146100ef575b600080fd5b34801561008157600080fd5b506100a561009036600461039a565b60016020526000908152604090205460ff1681565b60405190151581526020015b60405180910390f35b3480156100c657600080fd5b5060408051808201909152600381526264616f60e81b60208201525b6040516100b191906103fa565b3480156100fb57600080fd5b506100e261010a36600461039a565b6101aa565b34801561011b57600080fd5b5060005461012f906001600160a01b031681565b6040516001600160a01b0390911681526020016100b1565b61014f610227565b005b34801561015d57600080fd5b506100a561016c36600461039a565b6001600160a01b031660009081526001602052604090205460ff1690565b34801561019657600080fd5b5061014f6101a536600461039a565b61027d565b6060816001600160a01b03166317d7de7c6040518163ffffffff1660e01b815260040160006040518083038186803b1580156101e557600080fd5b505afa1580156101f9573d6000803e3d6000fd5b505050506040513d6000823e601f3d908101601f191682016040526102219190810190610443565b92915050565b670de0b6b3a764000034101561027b5760405162461bcd60e51b81526020600482015260156024820152744465706f7369742066756e647320746f20706c617960581b604482015260640160405180910390fd5b565b6102ae6040518060400160405280601081526020016f416464696e67204368616c6c656e676560801b8152506102f2565b6001600160a01b03811660009081526001602081905260408220805460ff1916909117905560028054916102e1836104f0565b91905055506102ef81610335565b50565b6102ef8160405160240161030691906103fa565b60408051601f198184030181529190526020810180516001600160e01b031663104c13eb60e21b179052610379565b6040516001600160a01b03821660248201526102ef9060440160408051601f198184030181529190526020810180516001600160e01b031663161765e160e11b1790525b80516a636f6e736f6c652e6c6f67602083016000808483855afa5050505050565b6000602082840312156103ac57600080fd5b81356001600160a01b03811681146103c357600080fd5b9392505050565b60005b838110156103e55781810151838201526020016103cd565b838111156103f4576000848401525b50505050565b60208152600082518060208401526104198160408501602087016103ca565b601f01601f19169190910160400192915050565b634e487b7160e01b600052604160045260246000fd5b60006020828403121561045557600080fd5b815167ffffffffffffffff8082111561046d57600080fd5b818401915084601f83011261048157600080fd5b8151818111156104935761049361042d565b604051601f8201601f19908116603f011681019083821181831017156104bb576104bb61042d565b816040528281528760208487010111156104d457600080fd5b6104e58360208301602088016103ca565b979650505050505050565b60006001600160ff1b0382141561051757634e487b7160e01b600052601160045260246000fd5b506001019056fea26469706673582212209b9c661fe50f1c7aa6f26627b47e16176721165a63328a1913e46a0ed0a6e2ff64736f6c63430008090033",
  "linkReferences": {},
  "deployedLinkReferences": {}
}