{
  "_format": "hh-sol-artifact-1",
  "contractName": "VowDAO",
  "sourceName": "contracts/VowDAO.sol",
  "abi": [
    {
      "inputs": [],
      "stateMutability": "nonpayable",
      "type": "constructor"
    },
    {
      "inputs": [],
      "name": "acceptChallenge",
      "outputs": [],
      "stateMutability": "payable",
      "type": "function"
    },
    {
      "inputs": [
        {
          "internalType": "address",
          "name": "challengeAddress",
          "type": "address"
        }
      ],
      "name": "addChallenge",
      "outputs": [],
      "stateMutability": "nonpayable",
      "type": "function"
    },
    {
      "inputs": [
        {
          "internalType": "address",
          "name": "",
          "type": "address"
        }
      ],
      "name": "challenges",
      "outputs": [
        {
          "internalType": "bool",
          "name": "",
          "type": "bool"
        }
      ],
      "stateMutability": "view",
      "type": "function"
    },
    {
      "inputs": [
        {
          "internalType": "address",
          "name": "challengeAddress",
          "type": "address"
        }
      ],
      "name": "getChallenge",
      "outputs": [
        {
          "internalType": "bool",
          "name": "",
          "type": "bool"
        }
      ],
      "stateMutability": "view",
      "type": "function"
    },
    {
      "inputs": [],
      "name": "owner",
      "outputs": [
        {
          "internalType": "address payable",
          "name": "",
          "type": "address"
        }
      ],
      "stateMutability": "view",
      "type": "function"
    },
    {
      "inputs": [],
      "name": "ping",
      "outputs": [
        {
          "internalType": "string",
          "name": "",
          "type": "string"
        }
      ],
      "stateMutability": "pure",
      "type": "function"
    }
  ],
  "bytecode": "0x608060405234801561001057600080fd5b50600080546001600160a01b0319163317905561029f806100326000396000f3fe6080604052600436106100555760003560e01c806308b43a191461005a5780635c36b1861461009f5780638da5cb5b146100d1578063b166bf6b14610109578063f37381ad14610113578063f8242c321461014c575b600080fd5b34801561006657600080fd5b5061008a6100753660046101e4565b60016020526000908152604090205460ff1681565b60405190151581526020015b60405180910390f35b3480156100ab57600080fd5b50604080518082018252600381526264616f60e81b602082015290516100969190610214565b3480156100dd57600080fd5b506000546100f1906001600160a01b031681565b6040516001600160a01b039091168152602001610096565b61011161018e565b005b34801561011f57600080fd5b5061008a61012e3660046101e4565b6001600160a01b031660009081526001602052604090205460ff1690565b34801561015857600080fd5b506101116101673660046101e4565b6001600160a01b03166000908152600160208190526040909120805460ff19169091179055565b670de0b6b3a76400003410156101e25760405162461bcd60e51b81526020600482015260156024820152744465706f7369742066756e647320746f20706c617960581b604482015260640160405180910390fd5b565b6000602082840312156101f657600080fd5b81356001600160a01b038116811461020d57600080fd5b9392505050565b600060208083528351808285015260005b8181101561024157858101830151858201604001528201610225565b81811115610253576000604083870101525b50601f01601f191692909201604001939250505056fea26469706673582212208fd28ef5f666ca060d627dab6006ee31db182721d988a1bbdde6bfbab951783264736f6c63430008090033",
  "linkReferences": {},
  "deployedLinkReferences": {}
}