{
  "_format": "hh-sol-artifact-1",
  "contractName": "VowDAO",
  "sourceName": "contracts/VowDAO.sol",
  "abi": [
    {
      "inputs": [],
      "stateMutability": "nonpayable",
      "type": "constructor"
    },
    {
      "inputs": [
        {
          "internalType": "address",
          "name": "challengeAddress",
          "type": "address"
        }
      ],
      "name": "addChallenge",
      "outputs": [],
      "stateMutability": "nonpayable",
      "type": "function"
    },
    {
      "inputs": [
        {
          "internalType": "address",
          "name": "",
          "type": "address"
        }
      ],
      "name": "challenges",
      "outputs": [
        {
          "internalType": "bool",
          "name": "",
          "type": "bool"
        }
      ],
      "stateMutability": "view",
      "type": "function"
    },
    {
      "inputs": [
        {
          "internalType": "address",
          "name": "challengeAddress",
          "type": "address"
        }
      ],
      "name": "getChallenge",
      "outputs": [
        {
          "internalType": "bool",
          "name": "",
          "type": "bool"
        }
      ],
      "stateMutability": "view",
      "type": "function"
    },
    {
      "inputs": [],
      "name": "owner",
      "outputs": [
        {
          "internalType": "address payable",
          "name": "",
          "type": "address"
        }
      ],
      "stateMutability": "view",
      "type": "function"
    },
    {
      "inputs": [],
      "name": "ping",
      "outputs": [
        {
          "internalType": "string",
          "name": "",
          "type": "string"
        }
      ],
      "stateMutability": "pure",
      "type": "function"
    }
  ],
  "bytecode": "0x608060405234801561001057600080fd5b50600080546001600160a01b03191633179055610202806100326000396000f3fe608060405234801561001057600080fd5b50600436106100575760003560e01c806308b43a191461005c5780635c36b186146100945780638da5cb5b146100b9578063f37381ad146100e4578063f8242c3214610110575b600080fd5b61007f61006a366004610147565b60016020526000908152604090205460ff1681565b60405190151581526020015b60405180910390f35b604080518082018252600381526264616f60e81b6020820152905161008b9190610177565b6000546100cc906001600160a01b031681565b6040516001600160a01b03909116815260200161008b565b61007f6100f2366004610147565b6001600160a01b031660009081526001602052604090205460ff1690565b61014561011e366004610147565b6001600160a01b03166000908152600160208190526040909120805460ff19169091179055565b005b60006020828403121561015957600080fd5b81356001600160a01b038116811461017057600080fd5b9392505050565b600060208083528351808285015260005b818110156101a457858101830151858201604001528201610188565b818111156101b6576000604083870101525b50601f01601f191692909201604001939250505056fea2646970667358221220ba2125f3468f8e10e6d32b6797fe0a34d5a607973002af87842c5eea25bf17a864736f6c63430008090033",
  "linkReferences": {},
  "deployedLinkReferences": {}
}